:100000000C9462000C948A000C948A000C948A0070
:100010000C948A000C948A000C948A000C948A0038
:100020000C948A000C948A000C948A000C948A0028
:100030000C948A000C948A000C948A000C948A0018
:100040000C9457020C948A000C948A000C948A0039
:100050000C948A000C948A000C948A000C948A00F8
:100060000C94A1020C948A000000000023002600DA
:10007000290000000000240027002A0000000000E2
:10008000250028002B0004040404040404040202D4
:100090000202020203030303030301020408102007
:1000A0004080010204081020010204081020000012
:1000B0000008000201000003040700000000000027
:1000C0000000FB0511241FBECFEFD8E0DEBFCDBF7F
:1000D00011E0A0E0B1E0E0EAFCE002C005900D9282
:1000E000A231B107D9F721E0A2E1B1E001C01D9230
:1000F000A23EB207E1F710E0C2E6D0E004C02197CB
:10010000FE010E943906C136D107C9F70E940504D5
:100110000C944E060C94000090E0FC01E255FF4F59
:100120002491FC01E656FF4F3491FC01EA57FF4F42
:10013000E491EE23C9F0222339F0233001F1A8F431
:10014000213019F1223029F1F0E0EE0FFF1FE458C1
:10015000FF4FA591B4918FB7F894EC91611126C02F
:1001600030953E233C938FBF08952730A9F0283067
:10017000C9F0243049F7809180008F7D03C08091C1
:1001800080008F7780938000DFCF84B58F7784BD28
:10019000DBCF84B58F7DFBCF8091B0008F778093CC
:1001A000B000D2CF8091B0008F7DF9CF3E2BDACF57
:1001B000CF93DF9390E0FC01E656FF4F24918A57DE
:1001C0009F4FFC0184918823D1F090E0880F991F04
:1001D000FC01EE58FF4FA591B491FC01E458FF4F8C
:1001E000C591D49161110EC09FB7F8948C91E22F04
:1001F000E0958E238C932881E223E8839FBFDF91D3
:10020000CF9108958FB7F894EC91E22BEC938FBFC8
:10021000F6CF3FB7F8948091DE019091DF01A09175
:10022000E001B091E10126B5A89B05C02F3F19F070
:100230000196A11DB11D3FBFBA2FA92F982F882766
:10024000BC01CD01620F711D811D911D42E0660F41
:10025000771F881F991F4A95D1F70895089508952B
:1002600020915301260F3327331F21323105ECF43F
:100270002091A201FC0190E080E0243069F082E04E
:100280000895A09153012191AC014D5C5E4FA40FE4
:10029000B52FB11D2C930196861798F380915301C9
:1002A000680F6093530180E0089581E008951092F3
:1002B000A20181E08093A10110927C0161E082E1C2
:1002C0000E948C0061E083E10E948C00E9EBF0E089
:1002D00080818E7F808380818D7F808388E480937E
:1002E000B80085E48093BC000895CF93DF9391E03C
:1002F000909332018823B9F0C091B800D091BA0030
:100300008091BC008A7B8093BC0060E082E10E9407
:100310008C0060E083E10E948C000E945701D09322
:10032000BA00C093B800DF91CF9108950895E0918D
:100330007B0180917A01E81730F4F0E0EE5EFE4F29
:10034000808190E008958FEF9FEF089590917B0159
:1003500080917A012FEF3FEF981748F4E92FF0E0F2
:10036000EE5EFE4F208130E09F5F90937B01C901DC
:10037000089580917A0190917B01891B990B0895D2
:10038000CF92DF92EF92FF920F931F93CF93DF9361
:100390007C01CB018A012091A801222389F0EB0185
:1003A0006B01C40ED51ECC15DD0569F06991D7012E
:1003B000ED91FC910190F081E02DC7010995F3CFFB
:1003C000642F0E943001C801DF91CF911F910F91DE
:1003D000FF90EF90DF90CF900895CF93DF931F921F
:1003E000CDB7DEB769832091A8012223F9F02091CF
:1003F000CB01203258F021E030E0FC01338322832E
:1004000090E080E00F90DF91CF9108958091A90155
:10041000E82FF0E0E655FE4F998190838F5F80933F
:10042000A9018093CB0181E090E0ECCF61E0CE01A7
:1004300001960E943001F7CF90E080E0089585EDAD
:100440008093BC008091A4019091A501A091A60188
:10045000B091A7010796A11DB11D23E0B695A79500
:10046000979587952A95D1F72091BC0024FD03C06C
:100470001092A20108954091A4015091A5016091AC
:10048000A6017091A701452B462B472B69F30097D6
:10049000A105B10541F02AE22A95F1F700C00197C4
:1004A000A109B109E1CF8091A3010C9475011F92BC
:1004B0000F920FB60F9211242F933F938F939F9318
:1004C000AF93BF938091DA019091DB01A091DC01A1
:1004D000B091DD013091D90123E0230F2D3758F57C
:1004E0000196A11DB11D2093D9018093DA0190934B
:1004F000DB01A093DC01B093DD018091DE019091DE
:10050000DF01A091E001B091E1010196A11DB11DB3
:100510008093DE019093DF01A093E001B093E101AD
:10052000BF91AF919F918F913F912F910F900FBEEF
:100530000F901F90189526E8230F0296A11DB11D5C
:10054000D2CF1F920F920FB60F9211242F933F9389
:100550004F935F936F937F938F939F93AF93BF93CB
:10056000EF93FF938091B900887F803609F44AC0E9
:10057000F0F5883209F4A7C018F5803109F49BC062
:10058000B8F4882309F4F9C0883009F494C0FF91C5
:10059000EF91BF91AF919F918F917F916F915F91FB
:1005A0004F913F912F910F900FBE0F901F90189574
:1005B000883109F488C0803251F78093A00114C0BB
:1005C000803409F49DC040F48033B9F38833F9F6E0
:1005D0008093A00185ECB0C0803509F485C08835D2
:1005E00009F496C0883499F60E941F02D0CF88394A
:1005F00009F48CC038F5883729F050F4883611F0AA
:10060000803729F683E08093A2011092750157C0CC
:10061000883809F47BC0803919F0803809F0B7CFE9
:1006200080917501803208F071C0E091750181E020
:100630008E0F809375018091BB00F0E0EB5AFE4F66
:1006400080833DC0803B39F0E0F4803A09F479C002
:10065000883A09F09CCF84E08093A2011092540163
:1006600010925301E0917801F09179010995809100
:10067000530181110FC081E0809353011092330127
:1006800009C0803C09F4A6CF883C09F4A3CF883B7D
:1006900009F07DCFE091540181E08E0F80935401E9
:1006A000F0E0ED5CFE4F80818093BB00909154019F
:1006B0008091530129C080917D018093BB0085EC1E
:1006C0008093BC0064CF90919F0180919E01981708
:1006D00058F5E0919F0181E08E0F80939F01F0E03B
:1006E000E258FE4F8081E9CFE0919F0181E08E0FBB
:1006F00080939F018091BB00F0E0E258FE4F808321
:1007000090919F0180919E019817C8F285E8D8CFFB
:10071000E0919F0181E08E0F80939F018091BB004B
:10072000F0E0E258FE4F80838091A10181115CCFFF
:1007300081E080937C0184EA8093BC001092A20146
:1007400026CF85EC8093BC001092A20180917501A8
:10075000803230F4E0917501F0E0EB5AFE4F1082E8
:100760006091750170E0E0917601F091770185E587
:1007700091E00995109275010ACF1092A00134CF33
:10078000CF92DF92EF92FF920F931F93E82FF92FF2
:1007900005C0015011092109310961F190819623A9
:1007A0009417B9F305C0015011092109310911F15C
:1007B000908196239413F7CFC12CD12CE12CF12CEE
:1007C0000AC08FEFC81AD80AE80AF80A0C151D05E6
:1007D0002E053F0579F080818623841791F36C2DD7
:1007E0007D2D8E2D9F2D1F910F91FF90EF90DF900B
:1007F000CF90089560E070E080E090E01F910F914D
:10080000FF90EF90DF90CF900895789484B5826048
:1008100084BD84B5816084BD85B5826085BD85B5A4
:10082000816085BD80916E00816080936E00109222
:10083000810080918100826080938100809181009D
:10084000816080938100809180008160809380002E
:100850008091B10084608093B1008091B00081608C
:100860008093B00080917A00846080937A008091B8
:100870007A00826080937A0080917A008160809310
:100880007A0080917A00806880937A001092C1008B
:1008900061E089E00E94D80060E08AE00E94D80010
:1008A00061E08DE00E94D80060E089E00E948C0049
:1008B00010927B0110927A011092A9011092CB0143
:1008C0000E9457018EE291E0909379018093780124
:1008D0008FE291E090937701809376013BE2232EA3
:1008E000312C40EDC42E47E0D42EE12CF12C61E0F8
:1008F00089E00E948C00C1010197F1F760E089E076
:100900000E948C00E4EAF0E06491E0E9F0E0849178
:10091000E82FF0E0EE0FFF1FE859FF4F859194910B
:1009200000E315E720E030E0462F0E94C0032B01D2
:100930003C01411451046104710449F1FFEF4F1A65
:100940005F0A6F0A7F0A2FE072224114510461048A
:100950007104E9F0A7E5B1E0A30192010E942E061F
:10096000A70196010E940C062115310581E0480778
:10097000510520F02FEF3FEF40E050E0E90121501A
:10098000310912E0203A3F4028F410E003C0D0E0E3
:10099000C0E011E081E08093A801E8E6E093CA019D
:1009A0001092A9011092CB0160E08DEC91E00E94C1
:1009B000ED01612F8DEC91E00E94ED016091CC0181
:1009C00081E0860F8093CC018DEC91E00E94ED01D7
:1009D0006D2F8DEC91E00E94ED016C2F8DEC91E07C
:1009E0000E94ED019927872D762D652D8DEC91E0E4
:1009F0000E94ED01642D8DEC91E00E94ED010091CB
:100A0000CB01013208F091C00E9409012B013C0189
:100A10008091A201811164C0F2E0F093A20181E013
:100A20008093A1012FEF2093A00110929F010093CA
:100A30009E01EAEAF1E0AEE7B1E080E00813B1C060
:100A400010927D0180917D01806D80937D01809168
:100A50007C01813009F0A9C010927C010E9409013B
:100A60002B013C0180917D018093BB008091A4010A
:100A70009091A501A091A601B091A701892B8A2B85
:100A80008B2B99F00E9409018090A4019090A50100
:100A9000A090A601B090A70164197509860997096D
:100AA00086169706A806B906E0F18091BC0083FD82
:100AB000D9CF85EC8093BC000E9409012B013C0139
:100AC0008091A201823009F474C08091A0018F3F0F
:100AD00061F18091A001803241F18091A00125C097
:100AE0008091A4019091A501A091A601B091A701C8
:100AF000892B8A2B8B2B09F48BCF0E9409018090C4
:100B0000A4019090A501A090A601B090A70164193E
:100B100075098609970986169706A806B90608F08A
:100B200077CF8091A3010E9475011092A9011092C4
:100B3000CB011092A801111104C061E0C83CD1059D
:100B400008F060E08DE00E948C000E9409014B01DA
:100B50005C018CE3482E512C612C712C0E94090100
:100B6000681979098A099B09683E734081059105D6
:100B7000A8F3E1E04E1A510861087108F8EE8F0EF3
:100B8000F3E09F1EA11CB11C4114510461047104C7
:100B900029F780E090E0892B09F4A9CE0E9400009B
:100BA000A6CE91919D938F5F49CF95EE9093BC0017
:100BB00083CF8091A4019091A501A091A601B0914D
:100BC000A701892B8A2B8B2B09F47ACF0E9409016C
:100BD0008090A4019090A501A090A601B090A701DB
:100BE000641975098609970986169706A806B90635
:100BF00008F066CF96CFEDECF1E01382128288EE1A
:100C000093E0A0E0B0E084839583A683B78384E07B
:100C100091E0918380830895A1E21A2EAA1BBB1B49
:100C2000FD010DC0AA1FBB1FEE1FFF1FA217B307B8
:100C3000E407F50720F0A21BB30BE40BF50B661FCE
:100C4000771F881F991F1A9469F760957095809592
:100C500090959B01AC01BD01CF0108950E943F0614
:100C6000A59F900DB49F900DA49F800D911D112400
:100C70000895EE0FFF1F0590F491E02D0994A29FB7
:100C8000B001B39FC001A39F700D811D1124911D60
:100C9000B29F700D811D1124911D0895F894FFCF0E
:100CA00000000000ED01C0011C029601B901A6017F
:020CB0009701AA
:00000001FF
